:1000000039C05DC05CC05BC05AC05FC258C057C039
:1000100056C055C054C053C052C051C050C0084A09
:10002000D73B3BCE016E84BCBFFDC12F3D6C74310C
:100030009ABD56833DDA3D00C77F11BED9E4BB4C63
:100040003E916BAAAABE000000803F0000000000A5
:1000500037000000000038000000000036000202F7
:100060000202020201020408102001020000040042
:100070004905A10511241FBECFE5D2E0DEBFCDBFEB
:1000800010E0A0E6B0E0ECE7F3E102C005900D92CD
:10009000AA36B107D9F720E0AAE6B0E001C01D9268
:1000A000A73AB207E1F710E0C9E3D0E003C0219717
:1000B000FE011ED8C833D107D1F751D253C9A0CF02
:1000C000DC01362F8091900090919100A817B9071C
:1000D00008F042C0E0919500EE2381F0F0E0862F19
:1000E00090E0BF01CDD7392F842F90E0BF01C8D752
:1000F000492F822F90E0BF01C3D7292F50919B0039
:1001000080919800E0919600F0919700581307C0F5
:10011000CD0163E070E0B4D78E0F9F1F0BC0CD01FF
:10012000880F991F880F991F8E0F9F1FFC01E50FE5
:10013000F11D108250919800FC01E50FF11D3083F4
:1001400030919900FC01E30FF11D408330919A003A
:10015000FC01E30FF11D20830895823081F018F433
:10016000813051F00895833019F0843009F00895FA
:100170008CB58F7D8CBD08958AB58F7702C08AB506
:100180008F7D8ABD08951F93CF93DF93282F30E092
:10019000F901E659FF4F8491F901EC59FF4FD491D1
:1001A000F901E25AFF4FC491CC23C1F0162F8111FF
:1001B000D4DFEC2FF0E0EE0FFF1FEE5AFF4FA591BA
:1001C000B4918FB7F894111105C09C91ED2FE09573
:1001D000E92302C0EC91ED2BEC938FBFDF91CF911F
:1001E0001F910895CF93DF9390E0FC01EC59FF4FEE
:1001F0002491FC01E25AFF4F8491882361F190E041
:10020000880F991FFC01E45BFF4FC591D491FC015D
:10021000EE5AFF4FA591B491611109C09FB7F894B0
:100220008881209582238883EC912E230BC0623035
:1002300061F49FB7F8943881822F80958323888357
:10024000EC912E2B2C939FBF06C08FB7F894E881BA
:100250002E2B28838FBFDF91CF9108953FB7F8945D
:1002600080916F0090917000A0917100B091720028
:1002700022B708B601FE05C02F3F19F00196A11D57
:10028000B11D3FBFBA2FA92F982F8827820F911D2C
:10029000A11DB11DBC01CD0143E0660F771F881F72
:1002A000991F4A95D1F708950F931F93CF93DF932A
:1002B000CDB7DEB727970FB6F894DEBF0FBECDBF20
:1002C0008091960090919700892B09F48AC0C6DF2F
:1002D00000919C0010919D0020919E0030919F0004
:1002E000DC01CB01801B910BA20BB30B8C32914034
:1002F000A105B10560F3F89480919200909193006C
:100300009A838983A0919600B0919700FD01319660
:100310008C918F831B8298B38091A200982B9E832F
:1003200098B3809589238D838D818C838F8187FFFE
:1003300002C08E818C835E816D814F813C812B81D7
:1003400089819A8158BB262F38BB00C046FD252FD6
:1003500068BB00C058BB362F28BB00C045FD352FF9
:1003600068BB00C058BB262F38BB00C044FD252FFA
:1003700068BB00C058BB362F28BB00C043FD352FDB
:1003800068BB00C058BB262F38BB00C042FD252FDC
:1003900068BB00C058BB362F28BB00C041FD352FBD
:1003A00068BB00C058BB262F38BB00C040FD252FBE
:1003B00068BB019758BB362F28BB419147FD352FAD
:1003C00068BB01F64F833C832B839A83898378949F
:1003D00045DF60939C0070939D0080939E009093F6
:1003E0009F0027960FB6F894DEBF0FBECDBFDF91FA
:1003F000CF911F910F910895369A3699FECF84B10F
:1004000095B10895E199FECF1CBA90E09FBB8EBBD9
:100410006DBBE29AE19A0895E199FECF90E09FBB0F
:100420008EBBE09A8DB30895EFE8F0E043815481EC
:1004300060E070E0878190858EC7CF93DF9300D016
:1004400000D0CDB7DEB783E087B9D6DF90938E00BA
:1004500080938D0082E087B9CFDF90938C008093EA
:100460008B00BC017250072E000C880B990BD9D45D
:100470009B01AC0180918D0090918E009250BC0147
:10048000990F880B990B29833A834B835C83C9D4DA
:1004900029813A814B815C81D6D320ED3FE049E44C
:1004A00050E424D420E030E040E85FE359D320E07A
:1004B00030E040EF51E46DD586D4862F0F900F9039
:1004C0000F900F90DF91CF9108951F920F920FB66A
:1004D0000F9211242F933F938F939F93AF93BF93CA
:1004E00080916B0090916C00A0916D00B0916E00B6
:1004F00030916A0026E0230F2D3720F40296A11DCB
:10050000B11D05C029E8230F0396A11DB11D20933D
:100510006A0080936B0090936C00A0936D00B09381
:100520006E0080916F0090917000A0917100B09169
:1005300072000196A11DB11D80936F009093700011
:10054000A0937100B0937200BF91AF919F918F9172
:100550003F912F910F900FBE0F901F901895789498
:100560008AB582608ABD8AB581608ABD83B78260A0
:1005700083BF83B7816083BF89B7826089BF80B73B
:10058000826080BF80B7816080BF8CB580648CBD85
:10059000329A319A3098379A80E886BD16BC60E06E
:1005A00080E020DE61E080E0EEDD86B1877D86B907
:1005B000379A8091940087FD06C061E013DE60E009
:1005C00080919400E0DD81E080938F006DDE35DF67
:1005D000082F10E010938200009381001093800098
:1005E00000937F00EAE6F0E08491E4E6F0E0D49145
:1005F000EEE5F0E0C491CC2309F478C18111ADDDC2
:10060000EC2FF0E0EE0FFF1FE85AFF4FA591B491D9
:10061000EC91ED2309F46AC12FC081E090E0909342
:100620007D0080937C00C0917C00D0917D00CC3D0A
:1006300025E0D20708F4C1C1D091620000916300A7
:10064000602F70E06D0F711D7595679580E0DADEA3
:10065000C091600010916100612F70E06C0F711DFE
:100660007595679581E0CEDE6D2F601B82E0CADE56
:100670006C2F611B83E0C6DED7DE89E190E09093AA
:100680007D0080937C000CE310E03BE6832E30E09D
:10069000932E40E0A42E40E0B42ECFDE80E0BCDEFE
:1006A00090E080589E4FE0908D00F0908E00E81A08
:1006B000F90AF0928E00E0928D0081E0ADDE90E0CC
:1006C00080589E4FC0918B00D0918C00C81BD90BD5
:1006D000D0938C00C0938B0040908700509088008E
:1006E0006090890070908A00B701FF0C880B990B0D
:1006F00098D3A301920133D220E030E040E05FE3E1
:1007000048D49B01AC01C301B2012AD26B017C0128
:1007100060938700709388008093890090938A008B
:100720004090830050908400609085007090860017
:10073000BE01DD0F880B990B74D3A30192010FD278
:1007400020E030E040E05FE324D49B01AC01C30132
:10075000B20106D22B013C016093830070938400A8
:10076000809385009093860083E056DE682F70E0CA
:1007700080E090E056D39B01AC01C301B201B6D238
:100780002B013C0182E048DE682F70E080E090E0C1
:1007900048D39B01AC01C701B601A8D2A3019201C5
:1007A00052D220ED3FE049E450E4A0D220E030E016
:1007B00040E85FE3D5D120E038EF4FEE55E4E9D3D0
:1007C000FDD27093820060938100CB01B80169D49F
:1007D000EB0161E081E006DD209711F460E004C0E8
:1007E000CF3FD10521F461E081E0CDDC23C0F401ED
:1007F0008491823089F038F48130C1F48AB5806800
:100800008ABDC9BD17C0833061F0843079F48CB5DE
:1008100080628CBDCBBD0EC08AB580628ABDC8BD6A
:1008200009C08CB580628CBDCEBD04C0C038D10576
:10083000D4F6D4CF809181009091820097FF02C0BE
:1008400081509F4FC92FD92FDD0FDD0BD093820030
:10085000C093810020917F0030918000C217D307A0
:1008600061F1CE01821B930B97FF03C09195819597
:10087000910961E04F970CF460E081E02C173D078F
:100880000CF080E0F62EF826F0927E00CDDD41E0FF
:100890004F254295440F440F407C6F2D6295660FA3
:1008A000660F607C20E0CE010BDCD0938000C0930B
:1008B0007F0010927D0010927C0080917C009091CE
:1008C0007D008931910530F028E140E260E2CE01FF
:1008D000F7DB05C0019690937D0080937C00E4DCFB
:1008E000A114B10409F4D9CE8BDBD7CED1E08FE0CF
:1008F000E82EF12C9DE1C92E2EE1D22E80918100AF
:10090000909182008017910709F087CE8DDDD093FA
:100910007B00C0917B00CE3198F580917E0090E005
:100920006EEF7FEFADD38F5FB7016C1B71099FD363
:100930005DE2580F50937A00209178003091790051
:1009400036952795369527952C0F9C2D921B81E087
:10095000933008F080E06D2D621B89D3982F682FAB
:1009600086D3880F692F83D380937700282F40E0A8
:1009700060E0852F90E0A4DBCF5FC0937B00C9CF00
:1009800093DC8091780090917900019690937900A2
:10099000809378008C36910549F41092790010927A
:1009A000780080917E008D2780937E0046DD90E068
:1009B0009093820080938100A1CF36DD3EDDE82F49
:1009C000F0E0F0938200E093810040918D0050911F
:1009D0008E004058514050938E0040938D002091DE
:1009E0008B0030918C002058314030938C00209344
:1009F0008B006091630070E04617570724F4409322
:100A00006300809376006091620070E06417750760
:100A100024F440936200809375004091610050E09F
:100A20002417350724F420936100809374004091CB
:100A3000600050E04217530724F420936000809335
:100A400073002AE140E260E2CF013ADB8091760058
:100A500020E040E460E490E033DB8091750020E02A
:100A600040E060E490E02CDB8091740020E440E002
:100A700060E090E025DB8091730020E040E460E0DE
:100A800090E01EDB11DC2196D0937D00C0937C00AA
:100A9000CACD10928F001092950010929C00109277
:100AA0009D0010929E0010929F0081E080939B0019
:100AB000809398001092990082E080939A0084EBD2
:100AC00090E0909393008093920018D390939700B6
:100AD00080939600009761F024EBFC0111922A9517
:100AE000E9F78CE390E0909391008093900008C028
:100AF0001092930010929200109291001092900028
:100B000082E08093940080918F00882331F061E02F
:100B100082E068DB60E082E036DBE0E6F0E0E49172
:100B2000F0E0EE0FFF1FEE5AFF4F859194919093E6
:100B3000A1008093A000E6E6F0E0E491E093A2003B
:100B400008958091960090919700009709F06BD3DB
:100B50008091940087FD02C060E044CB0895505816
:100B6000BB27AA270ED0D4C1C5D130F0CAD120F0FE
:100B700031F49F3F11F41EF495C10EF4E095E7FBAC
:100B80008BC1E92FD6D180F3BA17620773078407A8
:100B9000950718F071F49EF5EEC10EF4E0950B2E5A
:100BA000BA2FA02D0B01B90190010C01CA01A001BF
:100BB0001124FF27591B99F0593F50F4503E68F11A
:100BC0001A16F040A22F232F342F4427585FF3CF5B
:100BD000469537952795A795F0405395C9F77EF42C
:100BE0001F16BA0B620B730B840BBAF09150A1F075
:100BF000FF0FBB1F661F771F881FC2F70EC0BA0FFB
:100C0000621F731F841F48F4879577956795B79582
:100C1000F7959E3F08F0B3CF9395880F08F099277A
:100C2000EE0F97958795089565D158F080E891E08B
:100C300009F49EEF66D128F040E851E059F45EEFE8
:100C400009C030C198C1E92FE07873D168F3092E4B
:100C5000052AC1F3261737074807590738F00E2E23
:100C600007F8E02569F0E025E0640AC0EF6307F8C3
:100C7000009407FADB01B9019D01DC01CA01AD0155
:100C8000EF9343D045D10AD05F91552331F02BED3E
:100C90003FE049E450FD49EC63CF0895DF93DD2741
:100CA000B92FBF7740E85FE31616170648075B07C2
:100CB00010F4D92F67D19F938F937F936F93D4D1E3
:100CC000EEE1F0E0F2D024D12F913F914F915F916E
:100CD0006BD1DD2349F09058A2EA2AED3FE049ECC0
:100CE0005FE3D0785D274DDFDF9112C10CD010C1DA
:100CF00008D140F0FFD030F021F45F3F19F0CCC0B4
:100D000051113AC1CFC015D198F39923C9F3552396
:100D1000B1F3951B550BBB27AA27621773078407EE
:100D200038F09F5F5F4F220F331F441FAA1FA9F3A4
:100D300033D00E2E3AF0E0E830D091505040E69596
:100D4000001CCAF729D0FE2F27D0660F771F881FF7
:100D5000BB1F261737074807AB07B0E809F0BB0BE6
:100D6000802DBF01FF2793585F4F2AF09E3F51050A
:100D700068F092C001C15F3FECF3983EDCF38695CA
:100D800077956795B795F7959F5FC9F7880F911D80
:100D90009695879597F90895E1E0660F771F881F6C
:100DA000BB1F621773078407BA0720F0621B730B1F
:100DB000840BBA0BEE1F88F7E095089504D0689471
:100DC000B111DAC00895BDD088F09F5790F0B92FC7
:100DD0009927B751A0F0D1F0660F771F881F991F90
:100DE0001AF0BA95C9F712C0B13081F0C4D0B1E0A1
:100DF0000895C1C0672F782F8827B85F39F0B93FB1
:100E0000CCF3869577956795B395D9F73EF4909591
:100E10008095709561957F4F8F4F9F4F0895E8940F
:100E200009C097FB3EF490958095709561957F4F32
:100E30008F4F9F4F9923A9F0F92F96E9BB279395E0
:100E4000F695879577956795B795F111F8CFFAF4F0
:100E5000BB0F11F460FF1BC06F5F7F4F8F4F9F4F21
:100E600016C0882311F096E911C0772321F09EE87F
:100E7000872F762F05C0662371F096E8862F70E0E5
:100E800060E02AF09A95660F771F881FDAF7880FBF
:100E90009695879597F9089597F99F6780E870E090
:100EA00060E008959FEF80EC0895DF93CF931F9348
:100EB0000F93FF92EF92DF927B018C01689405C043
:100EC000DA2EEF0171D0FE01E894A59125913591BC
:100ED00045915591AEF3EF0154DEFE019701A80153
:100EE000DA9479F7DF90EF90FF900F911F91CF91F7
:100EF000DF91089500240A941616170618060906AD
:100F0000089500240A94121613061406050608957F
:100F1000092E0394000C11F4882352F0BB0F40F407
:100F2000BF2B11F460FF04C06F5F7F4F8F4F9F4F47
:100F3000089557FD9058440F551F59F05F3F71F0C9
:100F40004795880F97FB991F61F09F3F79F0879530
:100F50000895121613061406551FF2CF4695F1DFB9
:100F600008C0161617061806991FF1CF8695710549
:100F7000610508940895E894BB2766277727CB017D
:100F800097F908959B01AC0160E070E080E89FE371
:100F9000ADCE0AD0BDCFAEDF28F0B3DF18F0952379
:100FA00009F07ACF7FCFE8CFC4DFA8F39923D9F334
:100FB0005523C9F3950F50E0551FAA27EE27FF27A9
:100FC000BB2700240894679520F4E20FF31FB41F99
:100FD0000A1E220F331F441FAA1F6695A9F7779593
:100FE00030F4F30FB41F0A1E121E08F46395330F7A
:100FF000441FAA1F221F769599F7879520F4B40FF6
:101000000A1E121E631F440FAA1F221F331F86953C
:10101000A9F7862F712D602D11249F5750408AF01B
:10102000E1F088234AF0EE0FFF1FBB1F661F771FFA
:10103000881F91505040A9F79E3F510570F02CCF6A
:101040009BCF5F3FECF3983EDCF3869577956795F1
:10105000B795F795E7959F5FC1F7FE2B880F911D18
:101060009695879597F908959B01AC0192CF00243E
:1010700080FD060E660F11F08695D1F7802D08953C
:101080000024552704C0080E591F880F991F009788
:1010900029F076956795B8F37105B9F7802D952FEE
:1010A000089597FB072E16F4009406D077FD08D01C
:1010B0000BD007FC05D03EF4909581959F4F089585
:1010C000709561957F4F0895AA1BBB1B51E107C026
:1010D000AA1FBB1FA617B70710F0A61BB70B881FC8
:1010E000991F5A95A9F780959095BC01CD01089557
:1010F000EE0FFF1F0590F491E02D0994CF93DF933D
:101100008230910510F482E090E0E091A500F0912A
:10111000A60020E030E0C0E0D0E0309711F140813F
:10112000518148175907C0F04817590761F4828167
:101130009381209719F09B838A832BC09093A600FC
:101140008093A50026C02115310519F042175307D9
:1011500018F49A01BE01DF01EF010280F381E02D56
:10116000DCCF2115310509F1281B390B243031055D
:1011700090F412968D919C9113976115710521F051
:10118000FB019383828304C09093A6008093A50003
:10119000FD01329644C0FD01E20FF31F819391934C
:1011A000225031092D933C933AC02091A3003091F5
:1011B000A400232B41F42091660030916700309306
:1011C000A4002093A30020916400309165002115B4
:1011D000310541F42DB73EB7409168005091690048
:1011E000241B350BE091A300F091A400E217F30754
:1011F000A0F42E1B3F0B2817390778F0AC014E5F87
:101200005F4F2417350748F04E0F5F1F5093A4001F
:101210004093A3008193919302C0E0E0F0E0CF01FE
:10122000DF91CF9108950F931F93CF93DF93009792
:1012300009F48CC0FC013297138212820091A50040
:101240001091A6000115110581F420813181820FD2
:10125000931F2091A3003091A4002817390779F536
:10126000F093A400E093A30071C0D80140E050E0E7
:10127000AE17BF0750F412962D913C911397AD0114
:101280002115310509F1D901F3CF9D01DA0133832D
:10129000228360817181860F971F8217930769F4FB
:1012A000EC0128813981260F371F2E5F3F4F318394
:1012B00020838A819B8193838283452B29F4F09339
:1012C000A600E093A50042C01396FC93EE931297FC
:1012D000ED01499159919E01240F351FE217F30743
:1012E00071F480819181840F951F029611969C93D1
:1012F0008E938281938113969C938E931297E0E054
:10130000F0E0D80112968D919C911397009719F0F7
:10131000F8018C01F6CF8D919C9198012E5F3F4F83
:10132000820F931F2091A3003091A4002817390742
:1013300069F4309729F41092A6001092A50002C01B
:10134000138212821093A4000093A300DF91CF9127
:101350001F910F910895DC0101C06D9341505040E1
:10136000E0F7089510E0C9E3D0E003C0FE01C0DE5D
:0C1370002196CA33D107D1F7F894FFCFC3
:0A137C00C13FC13F0000A700800040
:00000001FF
